:040000004FEF04F0CA
:10000800FACF19F0FBCF1AF0E9CF1BF0EACF1CF0BA
:10001800E1CF1DF0E2CF1EF0D9CF1FF0DACF20F0EC
:10002800F3CF21F0F4CF22F0F6CF23F0F7CF24F06E
:10003800F8CF25F0F5CF26F0F230E832010B176E35
:10004800F238E832010B17140009D8B401D001D0F6
:1000580082D1F294FC0ED76EDF0ED66E010101013B
:10006800E92B44A001D001D026D0960E0101010150
:100078004B5D000E01014C59D8A001D001D01BD016
:10008800000E010101014C6F000E01014B6F176E4C
:10009800020E01010101B06F1750176E010E010128
:1000A8000101AF6F1750000E010101016A6F000EC8
:1000B8000101696F00D0630E01010101E96501D0FA
:1000C80001D001D1000E01010101E96F0101010117
:1000D800EF2B01010101F32B01010101B005D8A4A7
:1000E80001D001D005D0010101014B4B4C2B00D0B0
:1000F800010101018D058E11D8A401D001D00CD0C9
:10010800000E010101018E6F000E01018D6F0101CA
:1001180001018F4B902B00D001010101C705D8A424
:1001280001D001D009D0000E01010101C76F010102
:100138000101714B722B00D001010101DF05D8A428
:1001480001D001D005D001010101914B922B00D0C3
:10015800000100019605D8A401D001D043D00101C7
:100168000101794B7A2B010101017951010101014A
:10017800495D010101017A51010101014A59D8A0E3
:1001880001D001D029D01BC10BF01CC10CF01DC13E
:100198000DF01EC10EF017C10FF018C110F019C1F3
:1001A80011F01AC112F056EC53F00BC01BF10CC041
:1001B8001CF10DC01DF10EC01EF11BC101F01CC1C8
:1001C80002F01DC103F01EC104F058EC5EF001C03E
:1001D80035F002C036F006D0000E00010001966F1F
:1001E80001D000D0000100018705D8A401D001D0BA
:1001F8006AD001010101794B7A2B01010101795182
:1002080001010101375D010101017A51010101017B
:100218003859D8A001D001D04FD013C101F014C172
:1002280002F015C103F016C104F00FC105F010C1AA
:1002380006F011C107F012C108F0CBEC5FF0D8A0AE
:1002480001D001D033D00FC101F010C102F011C1AB
:1002580003F012C104F00DEC65F001C00BF002C010
:100268000CF003C00DF004C00EF013C10FF014C160
:1002780010F015C111F016C112F056EC53F00BC076
:1002880013F10CC014F10DC015F10EC016F113C115
:1002980001F014C102F015C103F016C104F058ECC6
:1002A8005EF001C035F002C036F00DD0000E366E9B
:1002B800000E356E08D007D0000E00010001876FD0
:1002C80002D001D000D001010101D405D8A401D089
:1002D80001D0C4D201010101534B542B3E6601D019
:1002E80001D01BD0010101018B5101010101535DB6
:1002F800010101018C51010101015459D8A001D01B
:1003080001D0ACD2000E01010101546F000E0101B1
:10031800536F010E3E6EA2D2A1D201010101895193
:1003280001010101535D010101018A51010101012E
:100338005459D8A001D001D091D2000E0101010179
:10034800546F000E0101536F000E3E6E87D286D2A5
:1003580085D284D283D29E50010B176E9D50010B1B
:1003680017140009D8B401D001D03CD19E90C10E19
:10037800CF6E7F0ECE6E01010101754B762B010108
:100388000101C82B01010101774B782B0101010103
:10039800594B5A2B01010101354B362B0101010143
:1003A800EA2B4EEC59F03F6E01010101654B662BBB
:1003B80001010101514B522B040E01010101EA65B3
:1003C80001D001D047D0000E01010101EA6F9682E9
:1003D80001010101C36701D001D00BD0000E84B226
:1003E800010E01010101ED6F010E01010101C36F51
:1003F80031D001010101C305D8A401D001D02AD010
:10040800000E84B2010E01010101EE6F010101012C
:10041800EE5101010101ED6301D001D014D00101B9
:100428000101EE6701D001D007D0010E00010001E3
:100438007E6F010E3B6E07D0000E000100017E6F3B
:10044800000E3B6E00D0000E01010101C36F02D007
:1004580001D000D0050E2F5C000E3058D8B001D066
:1004680001D019D0010101014D4B4E2BD00E0101D5
:100478004D5D070E01014E59D8A001D001D015D00D
:10048800070E010101014E6FD00E01014D6F000EE4
:100498004C6E0BD00AD0000E010101014E6F000E08
:1004A80001014D6F010E4C6E00D0640E0101010177
:1004B800755D000E01017659D8A001D001D00CD08D
:1004C800000E01010101766F000E0101756F3C2AD3
:1004D800000100017F2B00D0C80E01010101775DEA
:1004E800000E01017859D8B001D001D018D03F5082
:1004F8002B0AD8A401D001D005D0010101017D4B00
:100508007E2B5CD03F502D0AD8A401D001D056D004
:10051800010101016D4B6E2B51D050D04FD0C80E48
:1005280001010101775D000E01017859D8A001D0C1
:1005380001D044D0000E01010101786F000E0101C5
:10054800776F7DC1FDF17EC1FEF16DC1FBF16EC11A
:10055800FCF1020E01010101FD5D000E0101FE59D1
:10056800D8B001D001D008D0000E01010101FE6F02
:10057800010E0101FD6F00D0020E01010101FB5DBA
:10058800000E0101FC59D8B001D001D007D0000EEF
:1005980001010101FC6F010E0101FB6F000E010159
:1005A80001017E6F000E01017D6F000E0101010146
:1005B8006E6F000E01016D6F01D000D001010101C5
:1005C8005A515911D8B401D001D048D1000E0101B7
:1005D80001015A6F000E0101596FB2EC41F03ED192
:1005E8003DD13CD19E30010B176E9D30010B171485
:1005F8000009D8B401D001D002D09E922FD19E38E4
:10060800E832E832010B176E9D38E832E832010B08
:1006180017140009D8B401D001D008D09E9CC2920A
:10062800010E01010101A76F19D118D19E38010BE4
:10063800176E9D38010B17140009D8B401D001D0EA
:1006480002D09E980BD19E38E832010B176E9D3868
:10065800E832010B17140009D8B401D001D0FED03C
:10066800AECF95F0ABA401D001D002D0AB9EAB8E3B
:10067800ABA201D001D005D0AB98AB88AB9EAB8EB6
:1006880000D0000100019551240AD8A401D001D05E
:100698001FD001010101DA6701D001D019D0000E85
:1006A800000100018E6F010E01010101DA6F000ED9
:1006B80001010101B36F010E01010101BA6F000EC2
:1006C80001010101DB6F000E01010101D56FC6D0E8
:1006D80001010101DA05D8A401D001D0BFD0000181
:1006E80000018E51010D0101080EF324D96E01019C
:1006F800010EF420DA6E000195C0DFFF010101014F
:100708000851400AD8A401D001D01BD00001000133
:100718008E51010D0101080EF324D96E0101010E5D
:10072800F420DA6E000100018E51010D0201500E15
:10073800F324E16E0201020EF420E26EDFCFE7FF40
:1007480000D0050E000100018E6101D001D00AD051
:1007580001010101B35100010001952501010101C9
:10076800B36F00D0000100018E2B000100018E51F3
:10077800060AD8A401D001D071D0000E00010001F2
:100788008E6F000E01010101DA6F01010101B35101
:10079800010121EE0DF0DF6201D001D053D0010E2E
:1007A80001010101DB6F010101010851230AD8A4ED
:1007B80001D001D041D00101010109C16BF1010152
:1007C80001016C6B010101010AC173F10101010111
:1007D800746B010101017351186E176A010101015F
:1007E8006B51171001010101416F010101016C51A9
:1007F80018100101426F010101010BC16BF10101E8
:1008080001016C6B010101010CC173F101010101CE
:10081800746B010101017351186E176A010101011E
:100828006B511710010101013F6F010101016C516A
:1008380018100101406F0AD0010E01010101D56FA6
:1008480005D004D0000E01010101DB6F000E01018B
:100858000101B36F03D002D001D000D026C0F5FF4C
:1008680025C0F8FF24C0F7FF23C0F6FF22C0F4FF1D
:1008780021C0F3FF20C0DAFF1FC0D9FF1EC0E2FF6E
:100888001DC0E1FF1CC0EAFF1BC0E9FF1AC0FBFF47
:1008980019C0FAFF1100EAEF61F0376601D001D004
:1008A80009D00301046F000E000100018C6F0301E1
:1008B800045100D041A801D001D020D244A801D0D1
:1008C80001D01CD23A6601D001D018D201D200D290
:1008D800376601D001D003D090EC60F000D03C50D6
:1008E8000301046F056B0001000199510301045DC8
:1008F800000100019A5103010559D8A001D001D087
:1009080030D0000100017B6701D001D02AD0F9C1A5
:10091800FDF2FAC1FEF20201EFEC60F0F9C1FDF25E
:10092800FAC1FEF20201EFEC60F0000E00010001D6
:100938007B6F000E3C6E000E01010101766F000E08
:100948000101756F44A201D001D002D0808400D08B
:100958000301046F010E000100018C6F03010451B3
:1009680000D03B6601D002D072EF23F00301046F80
:10097800070E000100018C6F0301045172EF23F090
:1009880072EF23F0030E2F5C000E3058D8A001D070
:1009980001D043D0010E000100017F6501D001D0D4
:1009A80059D0030E2F5C000E3058D8A001D001D0CA
:1009B80051D08094000E3C6E000E01010101766F4B
:1009C800000E0101756F000E000100017F6F030129
:1009D800046F000E426E030104510301046F000E00
:1009E800436E03010451428660C0FDF261C0FEF20D
:1009F8000201EFEC60F00301046F030E0001000137
:100A08008C6F03010451010E01010101B76F010E42
:100A180001010101B96F1ED01DD0130E3C6401D035
:100A280001D018D08094000E3C6E000E0101010127
:100A3800766F000E0101756F010E3D6E040E396E62
:100A48000301046F070E000100018C6F03010451BC
:100A580001D000D03B6601D002D072EF23F0030131
:100A6800046F070E000100018C6F0301045172EF3F
:100A780023F072EF23F0010E01010101F16F4C66C2
:100A880001D001D00BD00301046F060E0001000154
:100A98008C6F03010451040E396E00D03B50D8B45A
:100AA80001D001D005D03950D8B401D001D04FD0F1
:100AB8003B6601D001D005D0010E00010001946F02
:100AC80000D00301046F000E426E030104510301BC
:100AD800046F000E436E030104514386000E3C6E02
:100AE800000E01010101766F000E0101756F000E05
:100AF800BE6ECF0EBD168B820301046F060E000179
:100B080000018C6F03010451000E01010101B76F50
:100B1800000E01010101B96F200E2A6E230E2B6E03
:100B2800240E2C6E160E2D6E010E386E000E01016D
:100B38000101366F000E0101356F000E0101010140
:100B4800BC6F000E01010101BD6F72EF23F00301BC
:100B5800046F000E426E030104510301046F000E7E
:100B6800436E03010451428660C0FDF261C0FEF28B
:100B78000201EFEC60F072EF23F072EF23F0000E49
:100B880001010101F16F3B6601D001D005D0010ED2
:100B980000010001946F00D03C500301046F056B05
:100BA80000010001AF510301045D00010001B051D3
:100BB80003010559D8B001D001D006D03B04D8A410
:100BC80001D001D01BD000D0000100019405D8A4A9
:100BD80001D001D013D0000E3C6E000E01010101BE
:100BE800766F000E0101756F0301046F070E000197
:100BF80000018C6F0301045172EF23F03C50030194
:100C0800046F056B00010001AF510301045D000191
:100C18000001B05103010559D8A001D002D072EFEC
:100C280023F0AFC03CF0000EBE6ECF0EBD1680960E
:100C380080943950D8B401D002D072EF23F059EC27
:100C480063F072EF23F072EF23F072EF23F072EF8C
:100C580023F03D50D8B401D001D002D059EC63F054
:100C6800C4EC63F03B04D8A401D001D00DD03D669C
:100C780001D001D009D00301046F000E000100016A
:100C88008C6F0301045100D03B04D8A401D001D0DB
:100C980011D03D50D8B401D001D00CD00301046F5D
:100CA800070E000100018C6F0301045159EC63F039
:100CB80072EF23F0000E396E000E3D6E85EC65F084
:100CC800010E01010101F06F72EF23F072EF23F0C2
:100CD800000100018C51000AD8B4FAD5010AD8B431
:100CE80051D6020AD8B4C7D6050AD8B448D7010ADB
:100CF800D8B4AFD772EF23F072EF23F041A801D038
:100D080002D0AFEF0CF044B801D001D006D044A611
:100D180001D002D0AFEF0CF000D03A04D8A401D033
:100D280002D0AFEF0CF08DEF0CF08DEF0CF03766C2
:100D380001D001D01DD0000120EE9FF0000110EE7F
:100D4800A3F0E652DE52DD50E55C02E1DF50E75CDD
:100D5800D8A001D001D009D044A601D001D005D037
:100D68009FC0A3F0A0C0A4F000D090EC60F000D029
:100D78003C500301046F056B000100019951030108
:100D8800045D000100019A5103010559D8A001D062
:100D980001D045D0000100017B6701D001D03FD0D0
:100DA800000100019E519D11D8B401D001D00DD091
:100DB800F9C182F00001020182C0FDF202010201C4
:100DC800FE6B0201EFEC60F00AD09FC082F09FC07A
:100DD800FDF2A0C0FEF20201EFEC60F000D0000EC0
:100DE800000100017B6F000E3C6E000E0001000147
:100DF8007F6F000E01010101766F000E0101756F12
:100E080044A201D001D002D0808400D00301046F35
:100E1800010E000100018C6F0301045100D03B66F4
:100E280001D002D072EF23F00301046F070E000116
:100E380000018C6F0301045172EF23F072EF23F06D
:100E4800030E2F5C000E3058D8A001D001D095D1E8
:100E5800010E000100017F6501D001D0ABD1030E66
:100E68002F5C000E3058D8A001D001D0A3D18094B7
:100E7800000E010101014E6F000E01014D6F010EC0
:100E88004C6E000E3C6E000E01010101766F000EE3
:100E98000101756F000E000100017F6F0001000164
:100EA8009E519D11D8B401D001D037D10301046FF0
:100EB800000E426E030104510301046F000E436EDD
:100EC8000301045142840001000182510001000124
:100ED8009F5D000E0001A059D8B001D001D077D095
:100EE80046500301046F056B0301041F051F044BE3
:100EF800052B000100019F51030104250001000199
:100F0800C96F00010001A051030105210001CA6F4A
:100F1800000150EC64F0C9C0CFF0CAC0D0F0CBC01B
:100F2800D1F0CCC0D2F0000E00010001E36F000E3A
:100F38000001E46F200E0001E56F410E0001E66F2D
:100F48009DC0C9F09EC0CAF0000150EC64F0C9C051
:100F5800DFF0CAC0E0F0CBC0E1F0CCC0E2F00001A5
:100F680087EC55F0DFC0D3F0E0C0D4F0E1C0D5F095
:100F7800E2C0D6F0000173EC58F0CFC017F1D0C032
:100F880018F1D1C019F1D2C01AF19DC0BFF09EC0AE
:100F9800C0F0000E00010001C26F0A0E0001C16F0F
:100FA800000190EC63F00001BFC049F10001C0C02E
:100FB8004AF146C0C9F00001A3EC64F0C9C01BF1B6
:100FC800CAC01CF1CBC01DF1CCC01EF179D0000104
:100FD800000182510301046F056B0301041F051F03
:100FE800044B052B000100019F510301042500015A
:100FF8000001C96F00010001A05103010521000192
:10100800CA6F000150EC64F0C9C0CFF0CAC0D0F07C
:10101800CBC0D1F0CCC0D2F0000E00010001E36FCC
:10102800000E0001E46F200E0001E56F410E000183
:10103800E66F9DC0C9F09EC0CAF0000150EC64F094
:10104800C9C0DFF0CAC0E0F0CBC0E1F0CCC0E2F02C
:10105800000187EC55F0DFC0D3F0E0C0D4F0E1C068
:10106800D5F0E2C0D6F0000173EC58F0CFC017F10C
:10107800D0C018F1D1C019F1D2C01AF19DC0BFF08B
:101088009EC0C0F0000E00010001C26F0A0E0001F0
:10109800C16F000190EC63F00001BFC049F100018D
:1010A800C0C04AF182C0C9F00001A3EC64F0C9C015
:1010B8001BF1CAC01CF1CBC01DF1CCC01EF100D081
:1010C800000E010101017A6F000E0101796F010E16
:1010D80000010001966F0301046F020E0001000178
:1010E8008C6F03010451250E2A6E200E2B6E230EE1
:1010F8002C6E200E2D6E010E386E000E01010101BE
:10110800366F000E0101356F000E01010101BC6F41
:10111800000E01010101BD6F4DD00301046F000EE7
:10112800426E030104510301046F000E436E030174
:10113800045142869FC0FDF2A0C0FEF20201EFEC0E
:1011480060F00301046F030E000100018C6F0301BE
:101158000451010E01010101B76F010E01010101E6
:10116800B96F44A601D001D025D0010E01010101BB
:10117800D46F20D01FD01ED01DD0130E3C6401D0D8
:1011880001D018D08094000E3C6E000E01010101C0
:10119800766F000E0101756F010E3D6E040E396EFB
:1011A8000301046F070E000100018C6F0301045155
:1011B80001D000D03B6601D002D072EF23F00301CA
:1011C800046F070E000100018C6F03010451010E2A
:1011D80000010001946F72EF23F072EF23F0000119
:1011E80000019605D8A401D001D051D00301046FA5
:1011F800000E426E030104510301046F000E436E9A
:1012080003010451428444A601D001D02FD0010E1D
:1012180001010101D46F00010001A351355C0001F7
:101228000001A4513658D8A001D001D016D03E04F0
:10123800D8A401D001D008D0A3C0FDF2A4C0FEF20A
:101248000201EFEC60F01AD035C0FDF236C0FEF2B4
:101258000201EFEC60F012D011D035C0FDF236C0BB
:10126800FEF20201EFEC60F009D008D035C0FDF2C3
:1012780036C0FEF20201EFEC60F000D00301046F0B
:10128800020E000100018C6F030104512ED00301EE
:10129800046F000E426E030104510301046F000E37
:1012A800436E0301045142869FC0FDF2A0C0FEF2C6
:1012B8000201EFEC60F0000E010101014E6F000E1B
:1012C80001014D6F010E4C6E0301046F030E000106
:1012D80000018C6F03010451010E01010101B76F78
:1012E800010E01010101B96F00D04C6601D001D097
:1012F8000DD00301046F070E000100018C6F03017C
:101308000451040E396E010E3D6E00D03B6601D0CB
:1013180002D072EF23F00301046F070E00010001F1
:101328008C6F0301045172EF23F072EF23F03B66D8
:1013380001D001D0BCD03B6601D001D005D0010E50
:1013480000010001946F00D00301046F000E426E8B
:10135800030104510301046F000E436E030104519D
:101368004382FB0E000100019F2500010001C96FA7
:10137800FF0E00010001A0210001CA6F000150EC1E
:1013880064F0C9C0CFF0CAC0D0F0CBC0D1F0CCC097
:10139800D2F0000E00010001E36F000E0001E46FBF
:1013A800200E0001E56F410E0001E66FABC0C9F0E9
:1013B800ACC0CAF0000150EC64F0C9C0DFF0CAC08C
:1013C800E0F0CBC0E1F0CCC0E2F0000187EC55F0D2
:1013D800DFC0D3F0E0C0D4F0E1C0D5F0E2C0D6F071
:1013E800000173EC58F0CFC00FF1D0C010F1D1C09C
:1013F80011F1D2C012F1ABC0BFF0ACC0C0F0000E0A
:1014080000010001C26F0A0E0001C16F000190ECDB
:1014180063F00001BFC037F10001C0C038F19FC0C0
:1014280035F0A0C036F09FC0C9F0A0C0CAF00001D6
:1014380050EC64F0C9C013F1CAC014F1CBC015F167
:10144800CCC016F10301046F040E000100018C6F7B
:1014580003010451000E010101017A6F000E010120
:10146800796F010E00010001876F000E0101010173
:10147800B76F000E01010101B96F140E2A6E270E15
:101488002B6E230E2C6E200E2D6E010E386E000E64
:1014980001010101366F000E0101356F000E0101D7
:1014A8000101BC6F000E01010101BD6F4AD044A6C5
:1014B80001D001D030D03E04D8A401D001D015D03D
:1014C8000301046F000E426E030104510301046F0F
:1014D800000E436E03010451428AA3C0FDF2A4C06A
:1014E800FEF20201EFEC60F02CD00301046F000E55
:1014F800426E030104510301046F000E436E0301A1
:10150800045142869FC0FDF2A0C0FEF20201EFEC3A
:1015180060F017D016D00301046F000E426E03016D
:1015280004510301046F000E436E03010451428607
:101538009FC0FDF2A0C0FEF20201EFEC60F001D006
:1015480000D04C6601D002D072EF23F00301046F83
:10155800040E000100018C6F03010451040E396E62
:1015680072EF23F072EF23F03B6601D001D005D073
:10157800010E00010001946F00D03B04D8A401D0F3
:1015880001D04ED0000100019405D8A401D001D0AB
:1015980047D00301046F000E426E0301045103019A
:1015A800046F000E436E0301045142869FC0FDF292
:1015B800A0C0FEF20201EFEC60F0000E0101010193
:1015C8004E6F000E01014D6F010E4C6E0301046F4A
:1015D800030E000100018C6F03010451010E01018B
:1015E8000101B76F010E01010101B96F000E010180
:1015F8000101766F000E0101756F010E386E000E45
:1016080001010101366F000E0101356F000E010165
:101618000101BC6F000E01010101BD6F72EF23F0E3
:10162800000100018705D8A401D001D057D04C048F
:10163800D8A401D001D052D00301046F000E426E2D
:10164800030104510301046F000E436E03010451AA
:10165800438244A601D001D02FD0010E010101011F
:10166800D46F00010001A351355C00010001A451B1
:101678003658D8A001D001D016D03E04D8A401D045
:1016880001D008D0A3C0FDF2A4C0FEF20201EFEC25
:1016980060F01AD035C0FDF236C0FEF20201EFEC60
:1016A80060F012D011D035C0FDF236C0FEF2020152
:1016B800EFEC60F009D008D035C0FDF236C0FEF27C
:1016C8000201EFEC60F000D00301046F040E00018A
:1016D80000018C6F0301045172EF23F03B50D8B422
:1016E80001D001D00BD04C50D8B401D001D006D0D5
:1016F8003B04D8A401D002D072EF23F03B6601D09E
:1017080001D004D0010E00010001946F000E000109
:101718000001876F0301046F000E426E030104513C
:101728000301046F000E436E030104514386000E4B
:101738003C6E000E01010101766F000E0101756F0C
:10174800000EBE6ECF0EBD160301046F060E00011B
:1017580000018C6F030104518B828094000E0101FB
:101768000101B76F000E01010101B96F200E2A6E49
:10177800230E2B6E240E2C6E160E2D6E010E386E57
:10178800000E01010101366F000E0101356F000ED8
:1017980001010101BC6F000E01010101BD6F72EF73
:1017A80023F072EF23F072EF23F072EF23F072EF61
:1017B80023F03B6601D001D005D0010E00010001E5
:1017C800946F00D03C500301046F056B00010001C9
:1017D800AF510301045D00010001B0510301055937
:1017E800D8B001D001D006D03B04D8A401D001D094
:1017F8001BD000D0000100019405D8A401D001D06D
:1018080013D0000E3C6E000E01010101766F000E30
:101818000101756F0301046F070E000100018C6F51
:101828000301045172EF23F03C500301046F056B70
:1018380000010001AF510301045D00010001B05136
:1018480003010559D8A001D002D072EF23F0AFC030
:101858003CF0000EBE6ECF0EBD16809680943950B7
:10186800D8B401D002D072EF23F059EC63F072EFD4
:1018780023F072EF23F072EF23F072EF23F0010EE2
:1018880001010101BD6FFEC0C7F0FFC0C8F0000133
:1018980056EC5FF03D50D8B401D001D002D059ECDD
:1018A80063F0C4EC63F03B04D8A401D001D00DD0A0
:1018B8003D6601D001D009D00301046F000E00017C
:1018C80000018C6F0301045100D03B04D8A401D05F
:1018D80001D011D03D50D8B401D001D00CD00301B3
:1018E800046F070E000100018C6F0301045159ECCD
:1018F80063F072EF23F0000E396E000E3D6E85EC3A
:1019080065F0010E01010101F06F72EF23F072EF33
:1019180023F0000100018C51000AD8B49BEF06F0B7
:10192800010AD8B424EF07F0030AD8B458D4010A3E
:10193800D8B4FDD4070AD8B417D6010AD8B472EFC0
:1019480023F0030AD8B435D7010AD8B498D772EF70
:1019580023F072EF23F041AA01D002D021EF13F057
:1019680044B801D002D0FFEF12F044A601D002D053
:1019780021EF13F0FFEF12F0FFEF12F0376601D0FE
:1019880001D01DD0000120EE9FF0000110EEA3F061
:10199800E652DE52DD50E55C02E1DF50E75CD8A09C
:1019A80001D001D009D044A601D001D005D09FC0F4
:1019B800A3F0A0C0A4F000D090EC60F000D03C50A0
:1019C8000301046F056B0001000199510301045DD7
:1019D800000100019A5103010559D8A001D002D095
:1019E80072EF23F0000100017B6701D002D072EF93
:1019F80023F09BC0FDF29CC0FEF20201EFEC60F008
:101A0800000E000100017B6F000E3C6E000E01010C
:101A18000101766F000E0101756F000E00010001D3
:101A28007F6F0301046F000E426E0301045103012E
:101A3800046F000E436E03010451428244A201D098
:101A480001D002D0808400D0230E2A6E240E2B6E83
:101A5800220E2C6E240E2D6E010E386E000E010122
:101A68000101366F000E0101356F000E0101010101
:101A7800BC6F000E01010101BD6F0301046F010E6F
:101A8800000100018C6F0301045172EF23F072EF23
:101A980023F0030E2F5C000E3058D8A001D001D0DF
:101AA8003DD1010E000100017F6501D001D036D182
:101AB800030E2F5C000E3058D8A001D001D02ED1D3
:101AC8008094000E3C6E000E01010101766F000E3D
:101AD8000101756F9BC0FDF29CC0FEF20201EFECA4
:101AE80060F00301046F010E000100018C6F030117
:101AF8000451010E00010001766F9BC035F09CC0B7
:101B080036F03B6601D001D009D1000E3C6E000EC4
:101B180001010101766F000E0101756F000E0001D1
:101B280000017F6F0301046F000E426E0301045130
:101B38000301046F000E436E0301045142849BC0ED
:101B4800FDF29CC0FEF20201EFEC60F0000120EE15
:101B58009BF0000110EE9FF0E652DE52DD50E55C8E
:101B680002E1DF50E75CD8A001D001D084D00001A9
:101B780000019E519D11D8B401D001D07CD0000144
:101B880020EE9BF0DECF04F3DDCF05F30301041F45
:101B9800051F044B052B000100019F51030104257B
:101BA80000010001C96F00010001A05103010521D6
:101BB8000001CA6F000150EC64F0C9C0CFF0CAC080
:101BC800D0F0CBC0D1F0CCC0D2F0000E00010001A3
:101BD800E36F000E0001E46F200E0001E56F410E77
:101BE8000001E66F9DC0C9F09EC0CAF0000150EC2C
:101BF80064F0C9C0DFF0CAC0E0F0CBC0E1F0CCC0EF
:101C0800E2F0000187EC55F0DFC0D3F0E0C0D4F07B
:101C1800E1C0D5F0E2C0D6F0000173EC58F0CFC0B7
:101C280017F1D0C018F1D1C019F1D2C01AF19DC076
:101C3800BFF09EC0C0F0000E00010001C26F0A0E86
:101C48000001C16F000190EC63F00001BFC049F1D1
:101C58000001C0C04AF19BC0C9F09CC0CAF0000195
:101C680050EC64F0C9C01BF1CAC01CF1CBC01DF117
:101C7800CCC01EF124D0000E01010101176F000E27
:101C88000101186F000E0101196F000E01011A6F92
:101C98009FC0C9F0A0C0CAF0000150EC64F0C9C0F0
:101CA8001BF1CAC01CF1CBC01DF1CCC01EF1000E47
:101CB800010101014A6F000E0101496F00D0000EB9
:101CC800010101017A6F000E0101796F010E000117
:101CD8000001966F0301046F020E000100018C6F72
:101CE80003010451250E2A6E200E2B6E230E2C6E36
:101CF800200E2D6E010E386E000E01010101366FA7
:101D0800000E0101356F000E01010101BC6F000ECC
:101D180001010101BD6F02D001D000D0130E3C6457
:101D280001D001D01DD000010001766701D001D09B
:101D380017D08094000E3C6E000E01010101766FF1
:101D4800000E0101756F010E3D6E0301046F070E51
:101D5800000100018C6F03010451040E396E00D09C
:101D68004C6601D002D072EF23F000010001760525
:101D7800D8A401D002D072EF23F00301046F050E3E
:101D8800000100018C6F03010451040E396E72EFDB
:101D980023F072EF23F0000100019605D8A401D0CA
:101DA80001D051D00301046F000E426E03010451AB
:101DB8000301046F000E436E03010451428444A6DC
:101DC80001D001D02FD0010E01010101D46F000113
:101DD8000001A351355C00010001A4513658D8A078
:101DE80001D001D016D03E04D8A401D001D008D02B
:101DF800A3C0FDF2A4C0FEF20201EFEC60F01AD01D
:101E080035C0FDF236C0FEF20201EFEC60F012D0F0
:101E180011D035C0FDF236C0FEF20201EFEC60F0E1
:101E280009D008D035C0FDF236C0FEF20201EFEC51
:101E380060F000D00301046F020E000100018C6FF6
:101E4800030104511DD00301046F000E426E03010B
:101E580004510301046F000E436E03010451030192
:101E6800046F030E000100018C6F03010451010E81
:101E780001010101B76F010E01010101B96F00D025
:101E88004C6601D002D072EF23F0000E0001000171
:101E9800966F0301046F050E000100018C6F0301AA
:101EA8000451040E396E72EF23F072EF23F03B6693
:101EB80001D001D009D00301046F000E0101010116
:101EC800B16F0301045100D03B04D8A401D001D064
:101ED800FDD001010101B16701D001D0F7D00301A4
:101EE800046F000E426E030104510301046F000EDB
:101EF800436E0301045143829FC035F0A0C036F001
:101F0800000120EE9FF0000110EEADF0E652DE5227
:101F1800DD50E55C02E1DF50E75CD8B001D001D0CC
:101F28007CD0000120EEADF0DECF04F3DDCF05F369
:101F38000301041F051F044B052B000100019F51DD
:101F48000301042500010001C96F00010001A0512F
:101F5800030105210001CA6F000150EC64F0C9C0FB
:101F6800CFF0CAC0D0F0CBC0D1F0CCC0D2F0000EB8
:101F780000010001E36F000E0001E46F200E000174
:101F8800E56F410E0001E66FABC0C9F0ACC0CAF006
:101F9800000150EC64F0C9C0DFF0CAC0E0F0CBC06B
:101FA800E1F0CCC0E2F0000187EC55F0DFC0D3F0DF
:101FB800E0C0D4F0E1C0D5F0E2C0D6F0000173EC87
:101FC80058F0CFC00FF1D0C010F1D1C011F1D2C07C
:101FD80012F1ABC0BFF0ACC0C0F0000E00010001B0
:101FE800C26F0A0E0001C16F000190EC63F000019E
:101FF800BFC037F10001C0C038F19FC0C9F0A0C010
:10200800CAF0000150EC64F0C9C013F1CAC014F161
:10201800CBC015F1CCC016F124D0000E010101018E
:102028000F6F000E0101106F000E0101116F000EFD
:102038000101126F000E01010101386F000E01014C
:10204800376FADC0C9F0AEC0CAF0000150EC64F003
:10205800C9C013F1CAC014F1CBC015F1CCC016F138
:1020680000D00301046F040E000100018C6F03010E
:102078000451000E010101017A6F000E0101796F10
:10208800010E00010001876F000E01010101B76F09
:10209800000E01010101B96F140E2A6E270E2B6E76
:1020A800230E2C6E200E2D6E010E386E000E0101CF
:1020B8000101366F000E0101356F000E01010101AB
:1020C800BC6F000E01010101BD6F4AD044A601D0CA
:1020D80001D030D03E04D8A401D001D015D00301DE
:1020E800046F000E426E030104510301046F000ED9
:1020F800436E03010451428AA3C0FDF2A4C0FEF25C
:102108000201EFEC60F02CD00301046F000E426E68
:10211800030104510301046F000E436E03010451CF
:1021280042869FC0FDF2A0C0FEF20201EFEC60F013
:1021380017D016D00301046F000E426E030104513C
:102148000301046F000E436E0301045142869FC0D1
:10215800FDF2A0C0FEF20201EFEC60F001D000D069
:102168004C6601D002D072EF23F00301046F050E14
:10217800000100018C6F03010451040E396E72EFE7
:1021880023F072EF23F03B6601D001D005D0010E99
:1021980000010001946F00D03B04D8A401D001D005
:1021A80059D0000100019405D8A401D001D052D023
:1021B8000301046F000E426E030104510301046F12
:1021C800000E436E0301045142869FC0FDF2A0C079
:1021D800FEF20201EFEC60F0000E010101014E6F0A
:1021E800000E01014D6F010E4C6E0301046F030ECA
:1021F800000100018C6F03010451010E010101016E
:10220800B76F010E01010101B96F000E0101010153
:10221800766F000E0101756F010E386E000E010118
:102228000101366F000E0101356F000E0101010139
:10223800BC6F000E01010101BD6F000E000100011D
:10224800946F0301046F010E01010101B16F0301D5
:10225800045198D0000100018705D8A401D001D00D
:1022680051D00301046F000E426E030104510301B3
:10227800046F000E436E03010451438244A601D04B
:1022880001D02FD0010E01010101D46F000100011E
:10229800A351355C00010001A4513658D8A001D0E3
:1022A80001D016D03E04D8A401D001D008D0A3C0D4
:1022B800FDF2A4C0FEF20201EFEC60F01AD035C0C6
:1022C800FDF236C0FEF20201EFEC60F012D011D040
:1022D80035C0FDF236C0FEF20201EFEC60F009D025
:1022E80008D035C0FDF236C0FEF20201EFEC60F016
:1022F80000D00301046F040E000100018C6F03017C
:10230800045140D00301046F000E426E03010451D2
:102318000301046F000E436E030104514384000E51
:102328003C6E000E01010101766F000E0101756F10
:10233800ADC0FDF2AEC0FEF20201EFEC60F00301A9
:10234800046F050E000100018C6F03010451150E86
:102358002A6E1E0E2B6E140E2C6E110E2D6E010E93
:10236800386E000E01010101366F000E0101356F54
:10237800000E01010101BC6F000E01010101BD6FDA
:1023880001D000D04C6601D002D072EF23F00301D7
:10239800046F050E000100018C6F03010451040E47
:1023A800396E000E00010001876F72EF23F072EFA3
:1023B80023F03B50D8B401D001D005D03950D8B45F
:1023C80001D001D060D03B6601D001D005D0010E0C
:1023D80000010001946F00D00301046F000E426EEB
:1023E800030104510301046F000E436E03010451FD
:1023F8004386000E3C6E000E01010101766F000E4F
:102408000101756F000EBE6ECF0EBD160301046F7D
:10241800060E000100018C6F030104518B82809429
:10242800000E000100017B6F000E01010101D46F55
:10243800000E00010001966F000E00010001876F79
:10244800200E2A6E230E2B6E240E2C6E160E2D6E69
:10245800010E386E000E01010101B76F000E010177
:102468000101B96F000E01010101366F000E010173
:10247800356F000E01010101BC6F000E0101010161
:10248800BD6F72EF23F04C6601D002D072EF23F0DB
:10249800040E396E72EF23F072EF23F03B6601D021
:1024A80001D005D0010E00010001946F00D03C500E
:1024B8000301046F056B00010001AF510301045DC6
:1024C80000010001B05103010559D8B001D001D075
:1024D80006D03B04D8A401D001D01BD000D0000105
:1024E80000019405D8A401D001D013D0000E3C6E91
:1024F800000E01010101766F000E0101756F0301E5
:10250800046F070E000100018C6F0301045172EF84
:1025180023F03C500301046F056B00010001AF512B
:102528000301045D00010001B05103010559D8A061
:1025380001D002D072EF23F0AFC03CF0000EBE6EA7
:10254800CF0EBD16809680943950D8B401D002D0F1
:1025580072EF23F059EC63F072EF23F072EF23F07F
:1025680072EF23F072EF23F0000E2A6E000E2B6E2E
:10257800000E2C6E000E2D6E3D50D8B401D001D047
:1025880002D059EC63F0C4EC63F03B04D8A401D04A
:1025980001D00DD03D6601D001D009D00301046FF0
:1025A800000E000100018C6F0301045100D03B04B0
:1025B800D8A401D001D011D03D50D8B401D001D059
:1025C8000CD00301046F070E000100018C6F03019A
:1025D800045159EC63F072EF23F0000E396E000ECF
:1025E8003D6E85EC65F0010E01010101F06F72EF9F
:1025F80023F072EF23F0000100018C51000AD8B4D7
:10260800C2EF0CF0010AD8B44DEF0DF0030AD8B4AC
:10261800CFEF0EF0010AD8B44AD4070AD8B4B3D51C
:10262800010AD8B4C6D6030AD8B438D7010AD8B430
:102638009BD772EF23F072EF23F041AC01D002D0A8
:1026480097EF17F044A801D002D097EF17F076EF74
:1026580017F076EF17F0376601D001D003D090EC71
:1026680060F000D03C500301046F056B00010001CD
:1026780099510301045D000100019A5103010559B4
:10268800D8A001D001D03ED0000100017B6701D065
:1026980001D038D0000100019E519D11D8B401D05D
:1026A80001D008D0F9C1FDF2FAC1FEF20201EFEC47
:1026B80060F008D09FC0FDF2A0C0FEF20201EFEC6E
:1026C80060F000D0000E000100017B6F000E3C6E30
:1026D800000E01010101766F000E0101756F000EF9
:1026E800000100017F6F44A201D001D002D0808494
:1026F80000D00301046F010E000100018C6F03017B
:10270800045100D03B6601D002D072EF23F00301E0
:10271800046F070E000100018C6F0301045172EF72
:1027280023F072EF23F0030E2F5C000E3058D8A070
:1027380001D001D0FAD0010E000100017F6501D05F
:1027480001D0F3D0030E2F5C000E3058D8A001D072
:1027580001D0EBD08094000E3C6E000E0101010107
:10276800766F000E0101756F000E000100017F6F8A
:10277800000100019E519D11D8B401D001D0A5D00F
:102788000301046F000E426E030104510301046F3C
:10279800000E436E030104514284FB0E0001000148
:1027A8009F2500010001C96FFF0E00010001A02153
:1027B8000001CA6F000150EC64F0C9C0CFF0CAC074
:1027C800D0F0CBC0D1F0CCC0D2F0000E0001000197
:1027D800E36F000E0001E46F200E0001E56F410E6B
:1027E8000001E66F9DC0C9F09EC0CAF0000150EC20
:1027F80064F0C9C0DFF0CAC0E0F0CBC0E1F0CCC0E3
:10280800E2F0000187EC55F0DFC0D3F0E0C0D4F06F
:10281800E1C0D5F0E2C0D6F0000173EC58F0CFC0AB
:1028280017F1D0C018F1D1C019F1D2C01AF19DC06A
:10283800BFF09EC0C0F0000E00010001C26F0A0E7A
:102848000001C16F000190EC63F00001BFC049F1C5
:102858000001C0C04AF1000E010101011B6F000E0A
:1028680001011C6FA00E01011D6F400E01011E6FBA
:10287800000E010101017A6F000E0101796F010E4E
:1028880000010001966F0301046F020E00010001B0
:102898008C6F03010451250E2A6E200E2B6E230E19
:1028A8002C6E200E2D6E010E386E000E01010101F6
:1028B800366F000E0101356F000E01010101BC6F7A
:1028C800000E01010101BD6F30D00301046F000E3D
:1028D800426E030104510301046F000E436E0301AD
:1028E800045142869FC0FDF2A0C0FEF20201EFEC47
:1028F80060F0000E3C6E000E01010101766F000EC3
:102908000101756F0301046F030E000100018C6F54
:1029180003010451010E01010101B76F010E01010C
:102928000101B96F02D001D000D0130E3C6401D070
:1029380001D017D08094000E3C6E000E01010101F9
:10294800766F000E0101756F010E3D6E040E396E33
:102958000301046F070E000100018C6F030104518D
:1029680000D03B6601D002D072EF23F00301046F60
:10297800070E000100018C6F0301045172EF23F070
:1029880072EF23F0000100019605D8A401D001D010
:102998001DD00301046F000E426E030104510301B0
:1029A800046F000E436E03010451428435C0FDF2EA
:1029B80036C0FEF20201EFEC60F00301046F020E74
:1029C800000100018C6F030104512ED00301046F34
:1029D800000E426E030104510301046F000E436EA2
:1029E8000301045142869FC0FDF2A0C0FEF202011D
:1029F800EFEC60F0000E3C6E000E01010101766FF5
:102A0800000E0101756F0301046F030E0001000140
:102A18008C6F03010451010E01010101B76F010E12
:102A280001010101B96F00D03B50D8B401D001D0E9
:102A380006D04C6601D002D072EF23F000D003011B
:102A4800046F070E000100018C6F030104513B66FF
:102A580001D001D005D0010E01010101EC6F00D0B9
:102A68004C6601D002D072EF23F0010E3D6E040EC9
:102A7800396E72EF23F072EF23F072EF23F03C50BF
:102A88000301046F056B00010001B1510301045DEE
:102A980000010001B25103010559D8B001D001D09D
:102AA80004D03B6601D001D0C5D03B6601D001D02F
:102AB80009D0010E01010101EC6F000E00010001B7
:102AC800876F04D0010E00010001876F000E3C6E75
:102AD800000E01010101766F000E0101756F0301FF
:102AE800046F000E426E030104510301046F000ECF
:102AF800436E030104514382FB0E000100019F2530
:102B080000010001C96FFF0E00010001A0210001B2
:102B1800CA6F000150EC64F0C9C0CFF0CAC0D0F051
:102B2800CBC0D1F0CCC0D2F0000E00010001E36FA1
:102B3800000E0001E46F200E0001E56F410E000158
:102B4800E66FABC0C9F0ACC0CAF0000150EC64F04D
:102B5800C9C0DFF0CAC0E0F0CBC0E1F0CCC0E2F001
:102B6800000187EC55F0DFC0D3F0E0C0D4F0E1C03D
:102B7800D5F0E2C0D6F0000173EC58F0CFC00FF1E9
:102B8800D0C010F1D1C011F1D2C012F1ABC0BFF06A
:102B9800ACC0C0F0000E00010001C26F0A0E0001B7
:102BA800C16F000190EC63F00001BFC037F1000174
:102BB800C0C038F19FC0C9F0A0C0CAF0000150ECF5
:102BC80064F0C9C013F1CAC014F1CBC015F1CCC070
:102BD80016F10301046F040E000100018C6F03015C
:102BE8000451000E010101017A6F000E0101796F95
:102BF800000E01010101B76F000E01010101B96F5B
:102C0800140E2A6E270E2B6E230E2C6E200E2D6EA0
:102C1800010E386E000E01010101366F000E010130
:102C2800356F000E01010101BC6F000E01010101A9
:102C3800BD6F08D09FC0FDF2A0C0FEF20201EFEC0C
:102C480060F000D04C6601D002D072EF23F003018F
:102C5800046F040E000100018C6F03010451000E83
:102C680000010001876F040E396E72EF23F072EFD6
:102C780023F03B6601D001D005D0010E010101010E
:102C8800EC6F00D04C6601D001D00FD00301046F67
:102C9800040E000100018C6F03010451000E0001B5
:102CA8000001876F040E396E00D00001000187050E
:102CB800D8A401D001D01ED00301046F000E426ECB
:102CC800030104510301046F000E436E0301045114
:102CD800438235C0FDF236C0FEF20201EFEC60F02F
:102CE8000301046F040E000100018C6F03010451FD
:102CF80072EF23F00301046F000E426E03010451CA
:102D08000301046F000E436E030104514386000E55
:102D18003C6E000E01010101766F000E0101756F16
:102D2800000EBE6ECF0EBD168B8280940301046F19
:102D3800060E000100018C6F03010451200E2A6E5B
:102D4800230E2B6E240E2C6E160E2D6E010E386E71
:102D5800000E01010101B76F000E01010101B96FF9
:102D6800000E01010101366F000E0101356F000EE2
:102D780001010101BC6F000E01010101BD6F72EF7D
:102D880023F072EF23F072EF23F03B6601D001D0FD
:102D980005D0010E01010101EC6F00D03C50030188
:102DA800046F056B00010001AF510301045D0001D0
:102DB8000001B05103010559D8B001D001D006D0A7
:102DC8003B04D8A401D001D01BD000D001010101DF
:102DD800EC05D8A401D001D013D0000E3C6E000E33
:102DE80001010101766F000E0101756F0301046F87
:102DF800070E000100018C6F0301045172EF23F0EC
:102E08003C500301046F056B00010001AF51030141
:102E1800045D00010001B05103010559D8A001D09B
:102E280002D072EF23F0AFC03CF0000EBE6ECF0EA2
:102E3800BD16809680943950D8B401D002D072EF74
:102E480023F059EC63F072EF23F072EF23F072EF86
:102E580023F072EF23F0000E2A6E000E2B6E000E88
:102E68002C6E000E2D6E3D50D8B401D001D002D08A
:102E780059EC63F0C4EC63F03B04D8A401D001D052
:102E88000DD03D6601D001D009D00301046F000EBA
:102E9800000100018C6F0301045100D03B04D8A449
:102EA80001D001D011D03D50D8B401D001D00CD000
:102EB8000301046F070E000100018C6F0301045128
:102EC80059EC63F072EF23F0000E396E000E3D6E80
:102ED80085EC65F0010E01010101F06F72EF23F03E
:102EE80072EF23F0000100018C51000AD8B42FEFD3
:102EF80013F0010AD8B417D4030AD8B443D5010A89
:102F0800D8B4BDD5070AD8B4B4D6010AD8B472EF7C
:102F180023F0030AD8B439D7010AD8B49CD772EF82
:102F280023F072EF23F041AE01D002D050EF1DF034
:102F380044A801D002D050EF1DF02FEF1DF02FEF65
:102F48001DF0376601D001D003D090EC60F000D0BE
:102F58003C500301046F056B000100019951030106
:102F6800045D000100019A5103010559D8A001D060
:102F780002D072EF23F0000100017B6701D002D07C
:102F880072EF23F09BC0FDF29CC0FEF20201EFEC51
:102F980060F0000E000100017B6F000E3C6E000E19
:102FA80001010101766F000E0101756F000E00012D
:102FB80000017F6F0301046F000E426E030104518C
:102FC8000301046F000E436E03010451428244A2C0
:102FD80001D001D002D0808400D0230E2A6E240EA6
:102FE8002B6E220E2C6E240E2D6E010E386E000EE6
:102FF80001010101366F000E0101356F000E01015C
:103008000101BC6F000E01010101BD6F0301046FD6
:10301800010E000100018C6F0301045172EF23F0CF
:1030280072EF23F0030E2F5C000E3058D8A001D0A9
:1030380001D042D1010E000100017F6501D001D00D
:103048003BD1030E2F5C000E3058D8A001D001D020
:1030580033D18094000E3C6E000E01010101766FA1
:10306800000E0101756F9BC0FDF29CC0FEF20201CB
:10307800EFEC60F00301046F010E000100018C6F9A
:1030880003010451010E00010001766F9BC035F069
:103098009CC036F03B6601D001D00ED18094000E62
:1030A8003C6E000E01010101766F000E0101756F83
:1030B800000E000100017F6F0301046F000E426ED5
:1030C800030104510301046F000E436E0301045110
:1030D80042849BC0FDF29CC0FEF20201EFEC60F05E
:1030E800000120EE9BF0000110EE9FF0E652DE5248
:1030F800DD50E55C02E1DF50E75CD8A001D001D0EB
:1031080084D0000100019E519D11D8B401D001D096
:103118007CD0000120EE9BF0DECF04F3DDCF05F379
:103128000301041F051F044B052B000100019F51DB
:103138000301042500010001C96F00010001A0512D
:10314800030105210001CA6F000150EC64F0C9C0F9
:10315800CFF0CAC0D0F0CBC0D1F0CCC0D2F0000EB6
:1031680000010001E36F000E0001E46F200E000172
:10317800E56F410E0001E66F9DC0C9F09EC0CAF020
:10318800000150EC64F0C9C0DFF0CAC0E0F0CBC069
:10319800E1F0CCC0E2F0000187EC55F0DFC0D3F0DD
:1031A800E0C0D4F0E1C0D5F0E2C0D6F0000173EC85
:1031B80058F0CFC017F1D0C018F1D1C019F1D2C062
:1031C8001AF19DC0BFF09EC0C0F0000E00010001C2
:1031D800C26F0A0E0001C16F000190EC63F000019C
:1031E800BFC049F10001C0C04AF19BC0C9F09CC0F2
:1031F800CAF0000150EC64F0C9C01BF1CAC01CF150
:10320800CBC01DF1CCC01EF124D0000E010101017C
:10321800176F000E0101186F000E0101196F000EE3
:1032280001011A6F9FC0C9F0A0C0CAF0000150EC9C
:1032380064F0C9C01BF1CAC01CF1CBC01DF1CCC0E1
:103248001EF1000E010101014A6F000E0101496FD4
:1032580000D0000E010101017A6F000E0101796FA3
:10326800010E00010001966F0301046F020E0001B8
:1032780000018C6F03010451010E00010001866FEB
:10328800250E2A6E200E2B6E230E2C6E200E2D6E10
:10329800010E386E000E01010101366F000E0101AA
:1032A800356F000E01010101BC6F000E0101010123
:1032B800BD6F02D001D000D0130E3C6401D001D004
:1032C8001DD000010001766701D001D017D080948D
:1032D800000E3C6E000E01010101766F000E010127
:1032E800756F040E396E0301046F070E00010001AB
:1032F8008C6F03010451010E3D6E00D04C6601D065
:1033080002D072EF23F0000100017605D8A401D0A5
:1033180002D072EF23F08094000E3C6E000E010183
:103328000101766F000E0101756F040E396E0301FD
:10333800046F050E000100018C6F03010451010E9A
:103348003D6E72EF23F072EF23F000010001960545
:10335800D8A401D001D01DD00301046F000E426E25
:10336800030104510301046F000E436E030104516D
:10337800428435C0FDF236C0FEF20201EFEC60F087
:103388000301046F020E000100018C6F0301045158
:1033980025D00301046F000E426E0301045103019E
:1033A800046F000E436E0301045142869FC0FDF274
:1033B800A0C0FEF20201EFEC60F00301046F030EFF
:1033C800000100018C6F03010451010E010101018C
:1033D800B76F010E01010101B96F00D04C6601D031
:1033E80002D072EF23F00301046F050E0001000103
:1033F8008C6F03010451040E396E72EF23F072EFE3
:1034080023F03B04D8A401D001D014D0000100015E
:10341800936701D001D00ED0010E00010001936F17
:10342800000E3C6E000E01010101766F000E0101D5
:10343800756F00D0000100019305D8A401D001D018
:1034480027D1150E3C6001D001D016D03B6601D0C3
:1034580001D01ED1000100018551D8B401D002D09D
:10346800010E01D0000E00010001856F000E000161
:103478000001936F0DD10CD1000E00010001936F74
:10348800000E3C6E000E01010101766F000E010175
:10349800756F000E00010001856F0301046F000EB7
:1034A800426E030104510301046F000E436E0301D1
:1034B8000451438264C035F065C036F00001000154
:1034C800AD5100010001645D00010001AE51000131
:1034D80000016559D8A001D001D07CD0000120EEB0
:1034E800ADF0DECF04F3DDCF05F30301041F051FA4
:1034F800044B052B00010001645103010425000160
:103508000001C96F00010001655103010521000197
:10351800CA6F000150EC64F0C9C0CFF0CAC0D0F047
:10352800CBC0D1F0CCC0D2F0000E00010001E36F97
:10353800000E0001E46F200E0001E56F410E00014E
:10354800E66FABC0C9F0ACC0CAF0000150EC64F043
:10355800C9C0DFF0CAC0E0F0CBC0E1F0CCC0E2F0F7
:10356800000187EC55F0DFC0D3F0E0C0D4F0E1C033
:10357800D5F0E2C0D6F0000173EC58F0CFC00FF1DF
:10358800D0C010F1D1C011F1D2C012F1ABC0BFF060
:10359800ACC0C0F0000E00010001C26F0A0E0001AD
:1035A800C16F000190EC63F00001BFC037F100016A
:1035B800C0C038F164C0C9F065C0CAF0000150EC61
:1035C80064F0C9C013F1CAC014F1CBC015F1CCC066
:1035D80016F124D0000E010101010F6F000E010148
:1035E800106F000E0101116F000E0101126F000E25
:1035F80001010101386F000E0101376FADC0C9F03C
:10360800AEC0CAF0000150EC64F0C9C013F1CAC0E2
:1036180014F1CBC015F1CCC016F100D00301046F32
:10362800040E000100018C6F03010451000E01011A
:1036380001017A6F000E0101796F000E000100018F
:10364800866F010E00010001876F000E0101010164
:10365800B76F000E01010101B96F140E2A6E270E13
:103668002B6E230E2C6E200E2D6E010E386E000E62
:1036780001010101366F000E0101356F000E0101D5
:103688000101BC6F000E01010101BD6F01D000D026
:10369800000100018605D8A401D001D032D0000174
:1036A8000001856701D001D012D00301046F000E1C
:1036B800426E030104510301046F000E436E0301BF
:1036C800045142869FC064F0A0C065F012D0030187
:1036D800046F000E426E030104510301046F000ED3
:1036E800436E030104514288A1C064F0A2C065F092
:1036F80000D064C0FDF265C0FEF20201EFEC60F09C
:1037080000D04C6601D002D072EF23F00301046FA1
:10371800050E000100018C6F03010451040E396E7F
:1037280072EF23F072EF23F0000100018705D8A49F
:1037380001D001D01DD00301046F000E426E0301B9
:1037480004510301046F000E436E030104514382C8
:1037580035C0FDF236C0FEF20201EFEC60F0030165
:10376800046F040E000100018C6F0301045147D05F
:103778000301046F000E426E030104510301046F3C
:10378800000E436E030104514384000E3C6E000E8C
:1037980001010101766F000E0101756FADC0FDF2E8
:1037A800AEC0FEF20201EFEC60F00301046F050EFB
:1037B800000100018C6F03010451150E2A6E1E0EC4
:1037C8002B6E140E2C6E110E2D6E010E386E000E1F
:1037D80001010101B76F000E01010101B96F000E6F
:1037E80001010101366F000E0101356F000E010164
:1037F8000101BC6F000E01010101BD6F00D04C66D4
:1038080001D002D072EF23F00301046F050E00010E
:1038180000018C6F03010451040E396E72EF23F01E
:1038280072EF23F04C6601D001D00BD00301046F76
:10383800050E000100018C6F03010451040E396E5E
:1038480000D03B50D8B401D001D006D03950D8B4FC
:1038580001D002D072EF23F03B6601D001D005D031
:10386800010E00010001946F00D00301046F000EE7
:10387800426E030104510301046F000E436E0301FD
:1038880004514386000E3C6E000E01010101766F63
:10389800000E0101756F000EBE6ECF0EBD168B8235
:1038A80080940301046F060E000100018C6F030170
:1038B8000451200E2A6E230E2B6E240E2C6E160E2B
:1038C8002D6E010E386E000E01010101B76F000E5A
:1038D80001010101B96F000E01010101366F000EEF
:1038E8000101356F000E01010101BC6F000E0101DD
:1038F8000101BD6F72EF23F072EF23F03B6601D038
:1039080001D005D0010E00010001946F00D03C5099
:103918000301046F056B00010001AF510301045D51
:1039280000010001B05103010559D8B001D001D000
:1039380006D03B04D8A401D001D01BD000D0000190
:1039480000019405D8A401D001D013D0000E3C6E1C
:10395800000E01010101766F000E0101756F030170
:10396800046F070E000100018C6F0301045172EF10
:1039780023F03C500301046F056B00010001AF51B7
:103988000301045D00010001B05103010559D8A0ED
:1039980001D002D072EF23F0AFC03CF0000EBE6E33
:1039A800CF0EBD16809680943950D8B401D002D07D
:1039B80072EF23F059EC63F072EF23F072EF23F00B
:1039C80072EF23F072EF23F0000E2A6E000E2B6EBA
:1039D800000E2C6E000E2D6E3D50D8B401D001D0D3
:1039E80002D059EC63F0C4EC63F03B04D8A401D0D6
:1039F80001D00DD03D6601D001D009D00301046F7C
:103A0800000E000100018C6F0301045100D03B043B
:103A1800D8A401D001D011D03D50D8B401D001D0E4
:103A28000CD00301046F070E000100018C6F030125
:103A3800045159EC63F072EF23F0000E396E000E5A
:103A48003D6E85EC65F0010E01010101F06F72EF2A
:103A580023F072EF23F0000100018C51000AD8B462
:103A6800A5EF17F0010AD8B416EF18F0030AD8B476
:103A78006CD4010AD8B4C5D4070AD8B455D6010AFB
:103A8800D8B4D0D6030AD8B439D7010AD8B49CD749
:103A980072EF23F072EF23F041AE01D002D072EF43
:103AA80023F044A601D002D072EF23F04EEF23F0AA
:103AB8004EEF23F0376601D001D01DD0000120EE73
:103AC8009FF0000110EEA3F0E652DE52DD50E55CF7
:103AD80002E1DF50E75CD8A001D001D009D044A6AC
:103AE80001D001D005D09FC0A3F0A0C0A4F000D0A1
:103AF80090EC60F000D03C500301046F056B0001AE
:103B0800000199510301045D000100019A5103016C
:103B18000559D8A001D001D036D0000100017B673B
:103B280001D001D030D09BC0FDF29CC0FEF2020152
:103B3800EFEC60F0010E000100017B6F000E3C6E9F
:103B4800000E01010101766F000E0101756F03017E
:103B5800046F000E426E030104510301046F000E4E
:103B6800436E0301045142820301046F000E0001F9
:103B780000018C6F0301045144A201D001D003D08D
:103B8800808401D000D0040E3C6401D002D072EFD2
:103B980023F0000100017B05D8A401D002D072EF08
:103BA80023F0000E3C6E000E01010101766F000E3D
:103BB8000101756F000E000100017F6F44A201D062
:103BC80001D002D0808400D00301046F010E0001EF
:103BD80000018C6F03010451230E2A6E240E2B6EF4
:103BE800220E2C6E240E2D6E010E386E000E010171
:103BF8000101366F000E0101356F000E0101010150
:103C0800BC6F000E01010101BD6F72EF23F072EF6E
:103C180023F0030E2F5C000E3058D8A001D001D03D
:103C280042D1010E000100017F6501D001D03BD1D6
:103C3800030E2F5C000E3058D8A001D001D033D12C
:103C480080949BC0FDF29CC0FEF20201EFEC60F094
:103C5800000E3C6E000E01010101766F000E01019D
:103C6800756F0301046F010E000100018C6F0301E1
:103C78000451010E00010001766F9BC035F09CC015
:103C880036F03B6601D001D00ED18094000E3C6E18
:103C9800000E01010101766F000E0101756F000E23
:103CA800000100017F6F0301046F000E426E0301E3
:103CB80004510301046F000E436E03010451428452
:103CC8009BC0FDF29CC0FEF20201EFEC60F0000127
:103CD80020EE9BF0000110EE9FF0E652DE52DD5020
:103CE800E55C02E1DF50E75CD8A001D001D084D0C8
:103CF800000100019E519D11D8B401D001D07CD0A3
:103D0800000120EE9BF0DECF04F3DDCF05F30301C5
:103D1800041F051F044B052B000100019F510301DF
:103D2800042500010001C96F00010001A051030131
:103D380005210001CA6F000150EC64F0C9C0CFF042
:103D4800CAC0D0F0CBC0D1F0CCC0D2F0000E000178
:103D58000001E36F000E0001E46F200E0001E56F23
:103D6800410E0001E66F9DC0C9F09EC0CAF0000177
:103D780050EC64F0C9C0DFF0CAC0E0F0CBC0E1F09D
:103D8800CCC0E2F0000187EC55F0DFC0D3F0E0C012
:103D9800D4F0E1C0D5F0E2C0D6F0000173EC58F0E1
:103DA800CFC017F1D0C018F1D1C019F1D2C01AF1A3
:103DB8009DC0BFF09EC0C0F0000E00010001C26FA0
:103DC8000A0E0001C16F000190EC63F00001BFC052
:103DD80049F10001C0C04AF19BC0C9F09CC0CAF0BB
:103DE800000150EC64F0C9C01BF1CAC01CF1CBC083
:103DF8001DF1CCC01EF124D0000E01010101176F86
:103E0800000E0101186F000E0101196F000E01016B
:103E18001A6F9FC0C9F0A0C0CAF0000150EC64F04E
:103E2800C9C01BF1CAC01CF1CBC01DF1CCC01EF12A
:103E3800000E010101014A6F000E0101496F00D017
:103E4800000E010101017A6F000E0101796F010E68
:103E580000010001966F0301046F020E00010001CA
:103E68008C6F03010451010E00010001866F250EBD
:103E78002A6E200E2B6E230E2C6E200E2D6E010E38
:103E8800386E000E01010101366F000E0101356F19
:103E9800000E01010101BC6F000E01010101BD6F9F
:103EA80002D001D000D0130E3C6401D001D01DD047
:103EB80000010001766701D001D017D08094000E70
:103EC8003C6E000E01010101766F000E0101756F55
:103ED800040E396E0301046F070E000100018C6F98
:103EE80003010451010E3D6E00D04C6601D001D093
:103EF800F5D3000100017605D8A401D001D0EED396
:103F08008094000E3C6E000E01010101766F000ED8
:103F18000101756F040E396E0301046F050E00016F
:103F280000018C6F03010451010E3D6ED7D3D6D327
:103F3800000100019605D8A401D001D044D00301A6
:103F4800046F000E426E030104510301046F000E5A
:103F5800436E030104514284010E01010101D46F33
:103F680000010001A351355C00010001A45136583D
:103F7800D8A001D001D016D03E04D8A401D001D0D9
:103F880008D0A3C0FDF2A4C0FEF20201EFEC60F07D
:103F980011D035C0FDF236C0FEF20201EFEC60F040
:103FA80009D008D035C0FDF236C0FEF20201EFECB0
:103FB80060F000D00301046F020E000100018C6F55
:103FC800030104511DD00301046F000E426E03016A
:103FD80004510301046F000E436E030104510301F1
:103FE800046F030E000100018C6F03010451010EE0
:103FF80001010101B76F010E01010101B96F00D084
:104008004C6601D001D06AD30301046F050E00018C
:1040180000018C6F03010451040E396E5FD35ED327
:104028003B04D8A401D001D014D00001000193674B
:1040380001D001D00ED0010E00010001936F000ED7
:104048003C6E000E01010101766F000E0101756FD3
:1040580000D0000100019305D8A401D001D023D1DC
:10406800150E3C6001D001D016D03B6601D001D0BE
:104078001AD1000100018551D8B401D002D0010E37
:1040880001D0000E00010001856F000E0001000143
:10409800936F09D108D1000E00010001936F000E43
:1040A8003C6E000E01010101766F000E0101756F73
:1040B800000E00010001856F0301046F000E426EBF
:1040C800030104510301046F000E436E0301045100
:1040D800438200010001AD5100010001645D00014F
:1040E8000001AE51000100016559D8A001D001D0EE
:1040F8007CD0000120EEADF0DECF04F3DDCF05F378
:104108000301041F051F044B052B00010001645126
:104118000301042500010001C96F00010001655178
:10412800030105210001CA6F000150EC64F0C9C009
:10413800CFF0CAC0D0F0CBC0D1F0CCC0D2F0000EC6
:1041480000010001E36F000E0001E46F200E000182
:10415800E56F410E0001E66FABC0C9F0ACC0CAF014
:10416800000150EC64F0C9C0DFF0CAC0E0F0CBC079
:10417800E1F0CCC0E2F0000187EC55F0DFC0D3F0ED
:10418800E0C0D4F0E1C0D5F0E2C0D6F0000173EC95
:1041980058F0CFC00FF1D0C010F1D1C011F1D2C08A
:1041A80012F1ABC0BFF0ACC0C0F0000E00010001BE
:1041B800C26F0A0E0001C16F000190EC63F00001AC
:1041C800BFC037F10001C0C038F164C0C9F065C094
:1041D800CAF0000150EC64F0C9C013F1CAC014F170
:1041E800CBC015F1CCC016F124D0000E010101019D
:1041F8000F6F000E0101106F000E0101116F000E0C
:104208000101126F000E01010101386F000E01015A
:10421800376FADC0C9F0AEC0CAF0000150EC64F011
:10422800C9C013F1CAC014F1CBC015F1CCC016F146
:1042380000D00301046F040E000100018C6F03011C
:104248000451000E010101017A6F000E0101796F1E
:10425800000E00010001866F010E00010001876F4A
:10426800000E01010101B76F000E01010101B96FD4
:10427800140E2A6E270E2B6E230E2C6E200E2D6E1A
:10428800010E386E000E01010101366F000E0101AA
:10429800356F000E01010101BC6F000E0101010123
:1042A800BD6F01D000D0000100018605D8A401D05F
:1042B80001D04AD000010001856701D001D02AD081
:1042C8003E04D8A401D001D012D00301046F000E1F
:1042D800426E030104510301046F000E436E030193
:1042E8000451428AA3C064F0A4C065F025D003013C
:1042F800046F000E426E030104510301046F000EA7
:10430800436E0301045142869FC064F0A0C065F06B
:1043180013D012D00301046F000E426E0301045142
:104328000301046F000E436E030104514288A1C0CB
:1043380064F0A2C065F000D064C0FDF265C0FEF272
:104348000201EFEC60F000D04C6601D001D0C6D17C
:104358000301046F050E000100018C6F0301045175
:10436800040E396EBBD1BAD1000100018705D8A46B
:1043780001D001D044D00301046F000E426E030146
:1043880004510301046F000E436E0301045143827C
:10439800010E01010101D46F00010001A351355C38
:1043A80000010001A4513658D8A001D001D016D080
:1043B8003E04D8A401D001D008D0A3C0FDF2A4C007
:1043C800FEF20201EFEC60F011D035C0FDF236C00C
:1043D800FEF20201EFEC60F009D008D035C0FDF222
:1043E80036C0FEF20201EFEC60F000D00301046F6A
:1043F800040E000100018C6F030104513FD003013A
:10440800046F000E426E030104510301046F000E95
:10441800436E030104514384000E3C6E000E0101FB
:104428000101766F000E0101756FADC0FDF2AEC0DF
:10443800FEF20201EFEC60F00301046F050E0001CB
:1044480000018C6F03010451150E2A6E1E0E2B6E8F
:10445800140E2C6E110E2D6E010E386E000E010119
:104468000101366F000E0101356F000E01010101D7
:10447800BC6F000E01010101BD6F00D04C6601D078
:1044880001D02CD10301046F050E000100018C6FCF
:1044980003010451040E396E21D120D14C6601D09C
:1044A80001D00BD00301046F050E000100018C6FD1
:1044B80003010451040E396E00D03B50D8B401D02A
:1044C80001D006D03950D8B401D001D007D100D0DE
:1044D8000301046F000E426E030104510301046FCF
:1044E800000E436E030104514386000E3C6E000E1D
:1044F80001010101766F000E0101756F000EBE6E9D
:10450800CF0EBD168B8280940301046F060E000146
:1045180000018C6F03010451200E2A6E230E2B6EAE
:10452800240E2C6E160E2D6E010E386E000E010133
:104538000101B76F000E01010101B96F000E010101
:104548000101366F000E0101356F000E01010101F6
:10455800BC6F000E01010101BD6FC0D0BFD03B662A
:1045680001D001D005D0010E00010001946F00D0E8
:104578003C500301046F056B00010001AF510301BA
:10458800045D00010001B05103010559D8B001D004
:1045980001D006D03B04D8A401D001D01AD000D055
:1045A800000100019405D8A401D001D012D0000E5A
:1045B8003C6E000E01010101766F000E0101756F5E
:1045C8000301046F070E000100018C6F0301045101
:1045D80085D03C500301046F056B00010001AF5109
:1045E8000301045D00010001B05103010559D8A081
:1045F80001D001D073D0AFC03CF0000EBE6ECF0E1C
:10460800BD16809680943950D8B401D001D066D0B8
:1046180059EC63F063D062D061D060D03D50D8B41B
:1046280001D001D002D059EC63F0C4EC63F03B0434
:10463800D8A401D001D00DD03D6601D001D009D059
:104648000301046F000E000100018C6F0301045187
:1046580000D03B04D8A401D001D010D03D50D8B42C
:1046680001D001D00BD00301046F070E0001000137
:104678008C6F0301045159EC63F030D0000E396E91
:10468800000E3D6E85EC65F0010E01010101F06F31
:1046980025D024D0000100018C51000AD8B45EEF67
:1046A8001DF0010AD8B40DEF1EF0030AD8B440D4A7
:1046B800010AD8B4B5D4070AD8B456D6010AD8B472
:1046C800EDD6030AD8B44BD7010AD8B4A7D706D079
:1046D80005D004D003D002D001D000D012000001D0
:1046E80000017A05D8A401D001D032D00001000120
:1046F8007D05D8A401D001D02BD03A04D8A401D08C
:1047080001D026D04A6601D001D022D0486601D017
:1047180001D01ED0010E00010001836F010E0101BE
:104728000101B26F130E2A6E1C0E2B6E1F0E2C6E1B
:104738001E0E2D6E010E386E000E01010101366F3E
:10474800000E0101356F000E01010101BC6F00D0A0
:10475800000100017805D8A401D001D047D000019C
:1047680000018305D8A401D001D040D04A6601D009
:1047780001D03CD0486601D001D038D0B7C045F050
:1047880000010001B851406E0001C96F710E0001AF
:104798000001BF6F0001C95145C0C0F000015BECCA
:1047A80065F00001C96F720E00010001BF6F0001C2
:1047B800C95140C0C0F000015BEC65F0000E00017B
:1047C8000001836F130E2A6E1C0E2B6E1F0E2C6EAB
:1047D800160E2D6E8AEC62F0010E386E000E010185
:1047E8000101366F000E0101356F00D00001000194
:1047F8007A05D8A401D001D018D0000100017D05A8
:10480800D8A401D001D011D03A6601D001D00DD082
:104818004A6601D001D009D0486601D001D005D040
:10482800010E00010001886F00D000010001780529
:10483800D8A401D001D01DD0000100018805D8A45A
:1048480001D001D016D000010001906701D001D03D
:104858000BD0000100018F6701D001D005D0010EF7
:1048680000010001906F05D0010E000100018F6F5B
:1048780000D001010101A051000100017C19D8B448
:1048880001D001D04AD1000100017C05D8A401D093
:1048980001D0F2D0486601D001D0EED044A001D0BA
:1048A80001D03ED00001C96F000E416E0001C95110
:1048B8000001C96F000E426E0001C9510001C96FA5
:1048C800000E436E0001C9510001C96F000E446E0D
:1048D8000001C95144824488418842864180BBC056
:1048E80061F2BCC062F20001000E00010001C06F5D
:1048F8000001970E0001BF6F0201020E00010001C6
:10490800C26F0201690E0001C16F000E00010001B3
:10491800C46F1A0E0001C36F000125EC64F0A7D024
:1049280044A201D001D056D00001C96F000E416EDB
:104938000001C9510001C96F000E426E0001C95142
:104948000001C96F000E436E0001C9510001C96F13
:10495800000E446E0001C95144844488418842864F
:1049680041800201020E00010001C06F0201690EC0
:104978000001BF6F0001000E00010001C26F0001BD
:10498800970E0001C16F000E00010001C46F1A0EDE
:104998000001C36F000125EC64F00001000E000166
:1049A8000001C06F0001970E0001BF6F0201020EE7
:1049B80000010001C26F0201910E0001C16F000EDB
:1049C80000010001C46F1A0E0001C36F000125EC3D
:1049D80064F04DD044A401D001D049D00001C96F82
:1049E800000E416E0001C9510001C96F000E426EF0
:1049F8000001C9510001C96F000E436E0001C95181
:104A08000001C96F000E446E0001C95144804286FE
:104A18000001C96F010E01010101B06F0001C95108
:104A2800000E010101014C6F000E01014B6F418026
:104A38000201020E00010001C06F0201910E000187
:104A4800BF6F0001000E00010001C26F0001970E48
:104A58000001C16F000E00010001C46F1A0E0001B1
:104A6800C36F000125EC64F002D001D000D0010E24
:104A780000010001806F4ED0000100017C05D8A420
:104A880001D001D047D04804D8A401D001D042D0E9
:104A980001010101D705D8A401D001D03BD0000EF7
:104AA80001010101D76F4704D8A401D001D00DD06E
:104AB800010E00010001796F030E2E6E000E276EA5
:104AC800000E286E200E296E13D04750020AD8A473
:104AD80001D001D00DD0020E00010001796F040E43
:104AE8002E6E000E276E000E286E200E296E00D046
:104AF800230E2A6E110E2B6E260E2C6E140E2D6EA2
:104B08008AEC62F0000E486E010E00010001806F11
:104B180001D000D07CC0A0F100D044B001D002D0B8
:104B280006EF35F044B201D001D005D044A401D03D
:104B380002D006EF35F04A6601D002D006EF35F014
:104B4800010101019D51000100017A19D8B401D079
:104B580001D05BD0486601D001D057D000010001D8
:104B68007A05D8A401D001D04ED03A04D8A401D0F7
:104B780001D049D041A801D001D005D04198418A3F
:104B8800419C419E1ED041AA01D001D005D0419838
:104B9800419A418C419E15D041AC01D001D005D03D
:104BA8004198419A419C418E0CD041AE01D001D030
:104BB80008D04188419A419C419E03D002D001D03F
:104BC80000D00001C96F000E426E0001C9510001FA
:104BD800C96F000E436E0001C95141924194418052
:104BE80044A801D001D002D0428608D044A601D002
:104BF80001D004D04286428C01D000D0010E0001C1
:104C08000001806F00D07AC09DF101010101A2511D
:104C1800000100017D19D8B401D001D04BD04866FD
:104C280001D001D047D0000100017D05D8A401D0F2
:104C380001D03DD03A04D8A401D001D038D0000129
:104C4800C96F000E426E0001C9510001C96F000E04
:104C5800436E0001C95144A601D001D00FD044963B
:104C6800448842869FC0C7F0A0C0C8F0000199ECF4
:104C780061F0000E01010101BC6F15D044A801D0FC
:104C880001D011D0448644984286428C9FC0C7F018
:104C9800A0C0C8F0000199EC61F0000E010101010B
:104CA800BC6F01D000D041924194418000D07DC0BA
:104CB800A2F100D03A6601D001D047D0376601D0C2
:104CC80001D043D04A6601D001D03FD0486601D018
:104CD80001D03BD001010101C06701D001D01DD036
:104CE8000001C96F000E426E0001C9510001C96F71
:104CF800000E436E0001C95142864488449641889B
:104D0800419A419C419E429C010E01010101CA6FDA
:104D1800010E01010101C06F00D042A601D001D0EF
:104D280028D000010001886701D001D022D0160EDA
:104D38002A6E1F0E2B6E1F0E2C6E240E2D6E000E6B
:104D480001010101BC6F15D014D001010101CA0590
:104D5800D8A401D001D00DD0000E01010101CA6F05
:104D6800000E01010101C06F010E00010001806FFA
:104D780000D0010101019C51000100017819D8B44B
:104D880001D002D0AAEF34F0486601D002D060EF1B
:104D980034F0000100017805D8A401D002D0A7EFB3
:104DA80034F000010001836701D002D0A7EF34F08E
:104DB80000010001886701D002D0A7EF34F04A66ED
:104DC80001D002D0A7EF34F041A801D001D0ACD077
:104DD80044A801D001D0A8D03A6601D001D0A4D00F
:104DE80042A001D001D027D00001C96F000E426E49
:104DF8000001C9510001C96F000E436E0001C9517D
:104E08004286419041824194160E2A6E2C0E2B6EDA
:104E18002C0E2C6E240E2D6E010E386E000E010124
:104E28000101BC6F000E01010101366F000E010186
:104E3800356F5CEF34F042A601D001D035D00001C7
:104E4800C96F000E426E0001C9510001C96F000E02
:104E5800436E0001C9514386419041824194200E1E
:104E68002E6E230E276E240E286E160E296E200E27
:104E78002A6E230E2B6E240E2C6E160E2D6E8AECC7
:104E880062F0010E386E000E01010101366F000E4E
:104E98000101356F000E01010101BC6F000E010117
:104EA8000101BD6F5CEF34F043A601D002D05CEF86
:104EB80034F00001C96F000E426E0001C9510001B3
:104EC800C96F000E436E0001C95142804190418272
:104ED8004194200E2E6E220E276E150E286E160E89
:104EE800296E200E2A6E220E2B6E150E2C6E160EB3
:104EF8002D6E8AEC62F0010E386E000E0101010180
:104F0800366F000E0101356F000E01010101BC6F03
:104F1800000E01010101BD6F5CEF34F05CEF34F06D
:104F28005CEF34F05CEF34F041A801D001D02DD112
:104F380044A801D001D029D13A04D8A401D001D085
:104F480024D142A001D001D035D00001C96F000E94
:104F5800426E0001C9510001C96F000E436E000185
:104F6800C9514284419041824194250E2E6E200EF3
:104F7800276E230E286E200E296E250E2A6E200E0F
:104F88002B6E230E2C6E200E2D6E8AEC62F0010E15
:104F9800386E000E01010101366F000E0101356FF8
:104FA800000E01010101BC6F000E01010101BD6F7E
:104FB8005CEF34F042A401D001D031D00001C96FB8
:104FC800000E426E0001C9510001C96F000E436E08
:104FD8000001C95142864180419241941D0E2E6EB6
:104FE800110E276E190E286E1E0E296E1D0E2A6EC2
:104FF800110E2B6E190E2C6E1E0E2D6E8AEC62F0A1
:10500800010E386E000E01010101366F000E01011C
:10501800356F000E01010101BC6F5CEF34F042A650
:1050280001D001D035D00001C96F000E426E0001D9
:10503800C9510001C96F000E436E0001C951438276
:10504800419041824194140E2E6E270E276E230E36
:10505800286E200E296E140E2A6E270E2B6E230E34
:105068002C6E200E2D6E8AEC62F0010E386E000E4A
:1050780001010101366F000E0101356F000E0101BB
:105088000101BC6F000E01010101BD6F5CEF34F03E
:1050980043A201D001D035D00001C96F000E426E85
:1050A8000001C9510001C96F000E436E0001C951CA
:1050B8004386419041824194200E2E6E230E276E26
:1050C800240E286E160E296E200E2A6E230E2B6EC5
:1050D800240E2C6E160E2D6E8AEC62F0010E386EC0
:1050E800000E01010101366F000E0101356F000E3F
:1050F80001010101BC6F000E01010101BD6F5CEFF0
:1051080034F043A601D002D05CEF34F00001C96F3F
:10511800000E426E0001C9510001C96F000E436EB6
:105128000001C9514280419041824194200E2E6E67
:10513800220E276E150E286E160E296E200E2A6E68
:10514800220E2B6E150E2C6E160E2D6E8AEC62F04A
:10515800010E386E000E01010101366F000E0101CB
:10516800356F000E01010101BC6F000E0101010144
:10517800BD6F5CEF34F05CEF34F05CEF34F05CEF63
:1051880034F05CEF34F05CEF34F041A801D001D08A
:10519800DED144A601D001D0DAD142A001D001D09D
:1051A80035D00001C96F000E426E0001C9510001DF
:1051B800C96F000E436E0001C9514284419041827B
:1051C8004194250E2E6E200E276E230E286E200E7B
:1051D800296E250E2A6E200E2B6E230E2C6E200EA5
:1051E8002D6E8AEC62F0010E386E000E010101018D
:1051F800366F000E0101356F000E01010101BC6F11
:10520800000E01010101BD6F5CEF34F042A401D032
:1052180001D036D00001C96F000E426E0001C9519D
:105228000001C96F000E436E0001C9514286428CCD
:10523800418041924194200E2E6E150E276E110E5C
:10524800286E1B0E296E200E2A6E150E2B6E110E5F
:105258002C6E1B0E2D6E8AEC62F0010E386E000E5D
:1052680001010101366F000E0101356F000E0101C9
:105278000101BC6F000E01010101BD6F5CEF34F04C
:1052880042A601D001D035D00001C96F000E426E90
:105298000001C9510001C96F000E436E0001C951D8
:1052A800428A418041924194120E2E6E110E276E51
:1052B800230E286E150E296E120E2A6E110E2B6EF5
:1052C800230E2C6E150E2D6E8AEC62F0010E386ED0
:1052D800000E01010101366F000E0101356F000E4D
:1052E80001010101BC6F000E01010101BD6F5CEFFE
:1052F80034F042AA01D001D035D00001C96F000EA8
:10530800426E0001C9510001C96F000E436E0001D1
:10531800C9514380419041924194140E2E6E250E3E
:10532800276E240E286E290E296E140E2A6E250E5D
:105338002B6E240E2C6E290E2D6E8AEC62F0010E57
:10534800386E000E01010101366F000E0101356F44
:10535800000E01010101BC6F000E01010101BD6FCA
:105368005CEF34F043A001D001D035D00001C96F03
:10537800000E426E0001C9510001C96F000E436E54
:105388000001C951428E419041924184160E2E6E01
:10539800220E276E150E286E210E296E160E2A6E05
:1053A800220E2B6E150E2C6E210E2D6E8AEC62F0DD
:1053B800010E386E000E01010101366F000E010169
:1053C800356F000E01010101BC6F000E01010101E2
:1053D800BD6F5CEF34F042AE01D001D035D0000192
:1053E800C96F000E426E0001C9510001C96F000E5D
:1053F800436E0001C9514382419041824194140E89
:105408002E6E270E276E230E286E200E296E140E80
:105418002A6E270E2B6E230E2C6E200E2D6E8AEC14
:1054280062F0010E386E000E01010101366F000EA8
:105438000101356F000E01010101BC6F000E010171
:105448000101BD6F5CEF34F043A201D001D035D02B
:105458000001C96F000E426E0001C9510001C96FF9
:10546800000E436E0001C951438641904182419428
:10547800200E2E6E230E276E240E286E160E296E11
:10548800200E2A6E230E2B6E240E2C6E160E2D6EF9
:105498008AEC62F0010E386E000E01010101366FD0
:1054A800000E0101356F000E01010101BC6F000EF5
:1054B80001010101BD6F5CEF34F043A601D002D0B9
:1054C8005CEF34F00001C96F000E426E0001C95153
:1054D8000001C96F000E436E0001C951428041901E
:1054E80041824194200E2E6E220E276E150E286ED4
:1054F800160E296E200E2A6E220E2B6E150E2C6E9D
:10550800160E2D6E8AEC62F0010E386E000E010147
:105518000101366F000E0101356F000E0101010116
:10552800BC6F000E01010101BD6F5CEF34F05CEF50
:1055380034F05CEF34F05CEF34F05CEF34F05CEFA7
:1055480034F05CEF34F05CEF34F05CEF34F041AAF7
:1055580001D001D09ED144A801D001D09AD142A057
:1055680001D001D035D00001C96F000E426E000194
:10557800C9510001C96F000E436E0001C951428232
:10558800418041924194230E2E6E240E276E220EE6
:10559800286E240E296E230E2A6E240E2B6E220EE0
:1055A8002C6E240E2D6E8AEC62F0010E386E000E01
:1055B80001010101366F000E0101356F000E010176
:1055C8000101BC6F000E01010101BD6F5CEF34F0F9
:1055D80042A201D001D035D00001C96F000E426E41
:1055E8000001C9510001C96F000E436E0001C95185
:1055F8004284419041824194250E2E6E200E276EE2
:10560800230E286E200E296E250E2A6E200E2B6E74
:10561800230E2C6E200E2D6E8AEC62F0010E386E71
:10562800000E01010101366F000E0101356F000EF9
:1056380001010101BC6F000E01010101BD6F5CEFAA
:1056480034F042A401D001D031D00001C96F000E5E
:10565800426E0001C9510001C96F000E436E00017E
:10566800C95142864180419241941D0E2E6E110E01
:10567800276E190E286E1E0E296E1D0E2A6E110E2B
:105688002B6E190E2C6E1E0E2D6E8AEC62F0010E1A
:10569800386E000E01010101366F000E0101356FF1
:1056A800000E01010101BC6F5CEF34F042A601D08D
:1056B80001D035D00001C96F000E426E0001C951FA
:1056C8000001C96F000E436E0001C9514382419029
:1056D80041824194140E2E6E270E276E230E286EDB
:1056E800200E296E140E2A6E270E2B6E230E2C6E9A
:1056F800200E2D6E8AEC62F0010E386E000E01014C
:105708000101366F000E0101356F000E0101010124
:10571800BC6F000E01010101BD6F5CEF34F043A2C4
:1057280001D001D035D00001C96F000E426E0001D2
:10573800C9510001C96F000E436E0001C95143846D
:10574800418041924194150E2E6E1E0E276E140E46
:10575800286E110E296E150E2A6E1E0E2B6E140E53
:105768002C6E110E2D6E8AEC62F0010E386E000E52
:1057780001010101366F000E0101356F000E0101B4
:105788000101BC6F000E01010101BD6F5CEF34F037
:1057980043A401D001D035D00001C96F000E426E7C
:1057A8000001C9510001C96F000E436E0001C951C3
:1057B8004386419041824194200E2E6E230E276E1F
:1057C800240E286E160E296E200E2A6E230E2B6EBE
:1057D800240E2C6E160E2D6E8AEC62F0010E386EB9
:1057E800000E01010101366F000E0101356F000E38
:1057F80001010101BC6F000E01010101BD6F5CEFE9
:1058080034F043A601D002D05CEF34F00001C96F38
:10581800000E426E0001C9510001C96F000E436EAF
:105828000001C9514280419041824194200E2E6E60
:10583800220E276E150E286E160E296E200E2A6E61
:10584800220E2B6E150E2C6E160E2D6E8AEC62F043
:10585800010E386E000E01010101366F000E0101C4
:10586800356F000E01010101BC6F000E010101013D
:10587800BD6F5CEF34F05CEF34F05CEF34F05CEF5C
:1058880034F05CEF34F05CEF34F05CEF34F05CEF54
:1058980034F041AA01D001D054D244A601D001D09D
:1058A80050D242A001D001D035D00001C96F000EFE
:1058B800426E0001C9510001C96F000E436E00011C
:1058C800C9514282418041924194230E2E6E240E8A
:1058D800276E220E286E240E296E230E2A6E240EA1
:1058E8002B6E220E2C6E240E2D6E8AEC62F0010EA9
:1058F800386E000E01010101366F000E0101356F8F
:10590800000E01010101BC6F000E01010101BD6F14
:105918005CEF34F042A201D001D035D00001C96F4C
:10592800000E426E0001C9510001C96F000E436E9E
:105938000001C9514284419041824194250E2E6E46
:10594800200E276E230E286E200E296E250E2A6E35
:10595800200E2B6E230E2C6E200E2D6E8AEC62F01C
:10596800010E386E000E01010101366F000E0101B3
:10597800356F000E01010101BC6F000E010101012C
:10598800BD6F5CEF34F042A401D001D036D00001E5
:10599800C96F000E426E0001C9510001C96F000EA7
:1059A800436E0001C9514286428C41804192419424
:1059B800200E2E6E150E276E110E286E1B0E296EE8
:1059C800200E2A6E150E2B6E110E2C6E1B0E2D6ED0
:1059D8008AEC62F0010E386E000E01010101366F8B
:1059E800000E0101356F000E01010101BC6F000EB0
:1059F80001010101BD6F5CEF34F042A601D001D076
:105A080035D00001C96F000E426E0001C951000176
:105A1800C96F000E436E0001C951428A418041920C
:105A28004194120E2E6E110E276E230E286E150E3F
:105A3800296E120E2A6E110E2B6E230E2C6E150E69
:105A48002D6E8AEC62F0010E386E000E0101010124
:105A5800366F000E0101356F000E01010101BC6FA8
:105A6800000E01010101BD6F5CEF34F042AA01D0C4
:105A780001D035D00001C96F000E426E0001C95136
:105A88000001C96F000E436E0001C9514380419067
:105A980041924194140E2E6E250E276E240E286E08
:105AA800290E296E140E2A6E250E2B6E240E2C6ECE
:105AB800290E2D6E8AEC62F0010E386E000E01017F
:105AC8000101BC6F000E01010101366F000E0101DA
:105AD800356F000E01010101BD6F5CEF34F043A08A
